:100000000C945E000C9486000C9486000C94860080
:100010000C9486000C9486000C9486000C94860048
:100020000C9486000C9486000C9486000C94860038
:100030000C9486000C9486000C9486000C94860028
:100040000C9488080C9486000C9409090C94E3081D
:100050000C9486000C9486000C9486000C94860008
:100060000C9486000C9486000000000024002700F9
:100070002A0000000000250028002B0004040404CE
:100080000404040402020202020203030303030342
:10009000010204081020408001020408102001021F
:1000A00004081020000000080002010000030407FB
:1000B00000000000000000007B08410911241FBE61
:1000C000CFEFD8E0DEBFCDBF12E0A0E0B1E0E0E3CB
:1000D000FDE102C005900D92AA32B107D9F723E0E5
:1000E000AAE2B2E001C01D92A530B207E1F710E02C
:1000F000CDE5D0E004C02197FE010E94800CCC35F4
:10010000D107C9F70E9448090C948B0E0C9400008B
:100110000895833069F028F48130B1F08230C1F065
:1001200008958730C9F08830E9F0843001F506C0C1
:10013000E0E8F0E080818F7780830895E0E8F0E0E8
:1001400080818F7D8083089584B58F7784BD0895E5
:1001500084B58F7D84BD0895E0EBF0E080818F77DA
:1001600080830895E0EBF0E080818F7D80830895A7
:100170001F93CF93DF93282F30E0F901EC55FF4F09
:100180008491F901E057FF4F1491F901E458FF4FB2
:10019000C491CC23D1F0D62F81110E948900EC2F7D
:1001A000F0E0EE0FFF1FEE58FF4FA591B4918FB70F
:1001B000F894D11106C09C91E12FE095E923EC93CE
:1001C00003C0EC91E12BEC938FBFDF91CF911F9196
:1001D0000895CF93DF9390E0FC01E057FF4F249107
:1001E000FC01E458FF4F8491882379F190E0880F57
:1001F000991FFC01E859FF4FA591B491FC01EE58FD
:10020000FF4FC591D49161110CC09FB7F8948C91A8
:10021000E22FE0958E238C932881E223E8839FBF11
:1002200014C0623061F49FB7F8948C91322F3095EE
:1002300083238C93E881E22BE8839FBF06C08FB7AE
:10024000F894EC91E22BEC938FBFDF91CF9108955E
:100250008230910538F0880F991F880F991F0597F4
:100260000197F1F708953FB7F8948091FD029091BE
:10027000FE02A091FF02B091000326B5A89B05C025
:100280002F3F19F00196A11DB11D3FBFBA2FA92F15
:10029000982F8827820F911DA11DB11DBC01CD0192
:1002A000660F771F881F991F660F771F881F991F7A
:1002B00008958F929F92AF92BF92CF92DF92EF926A
:1002C000FF926B017C010E9433014B015C011DC058
:1002D00021E0C21AD108E108F10888EE880E83E017
:1002E000981EA11CB11CC114D104E104F10469F0F1
:1002F0000E943301DC01CB0188199909AA09BB09C5
:10030000883E9340A105B10518F7C114D104E1045A
:10031000F10449F7FF90EF90DF90CF90BF90AF903E
:100320009F908F9008952FB7F8946091F902709183
:10033000FA028091FB029091FC022FBF089508956C
:100340000F931F93CF93DF93EC010E949301688773
:1003500079878A879B87E881F9810284F385E02D7C
:10036000CE0109959923BCF40E9493010885198553
:100370002A853B85DC01CB01801B910BA20BB30BC3
:100380000C811D812E813F8180179107A207B30741
:1003900010F38FEF9FEFDF91CF911F910F91089591
:1003A000CF92DF92EF92FF920F931F93CF93DF9341
:1003B0008C01DB01C0E0D0E07A0181E0E81AF108AD
:1003C000452BA1F0F80180819181FC0120813181D0
:1003D0006D01FFEFCF1ADF0A6C91C801F901099591
:1003E000892B21F02196A701D601E6CFCE01DF911E
:1003F000CF911F910F91FF90EF90DF90CF900895D4
:10040000019779F56F3F7F4F61F5EBE5F2E01382DD
:10041000128288EE93E0A0E0B0E084839583A68307
:10042000B78388E591E09183808385EC90E09587A0
:10043000848784EC90E09787868780EC90E0918BAE
:10044000808B81EC90E0938B828B82EC90E0958B9B
:10045000848B86EC90E0978B868B118E128E138E98
:10046000148E0895FC01238D348D231738F08FE30B
:1004700090E0821B9109830F911D0895832F90E0D6
:10048000821B910901970895FC01918D828D981727
:1004900061F0828DDF01A80FB11D5D968C91928D68
:1004A0009F5F9F73928F90E008958FEF9FEF089565
:1004B000FC01918D828D981731F0828DE80FF11D2E
:1004C000858D90E008958FEF9FEF0895FC01218DB9
:1004D00030E0205C3F4F828DA901481B5109CA01C1
:1004E0008F7399270895CF92DF92EF92FF921F9317
:1004F000CF93DF93EC016A017B01122F60E079E07A
:100500008DE390E0A70196010E94270CDA01C90152
:100510000197A109B109B695A795979587959C0173
:10052000E889F98982E08083C11481EED806E1046C
:10053000F10421F0211580E13807A8F0E889F98954
:10054000108260E874E88EE190E0A70196010E94B5
:10055000270CDA01C9010197A109B109B695A79540
:10056000979587959C01EC85FD853083EE85FF8509
:100570002083188EEC89FD891083EA89FB898081AC
:1005800080618083EA89FB89808188608083EA8931
:10059000FB89808180688083EA89FB8980818F7DE7
:1005A0008083DF91CF911F91FF90EF90DF90CF90EC
:1005B0000895FC01848DDF01A80FB11DA35ABF4F20
:1005C0008C91248D30E02F5F3F4F2F733078332391
:1005D00034F421503109206C3F6F2F5F3F4F248F3F
:1005E000A689B7898C93A089B1898C918370806426
:1005F0008C93938D848D981306C00288F389E02D27
:1006000080818F7D808308950F931F93CF93DF9315
:10061000EC0181E0888F9B8D8C8D981307C0E88951
:10062000F989808185FD04C080E003C080E001C0BD
:1006300081E0882391F08FB7F89491E0992359F0E5
:10064000EE89FF896083E889F989908193709064CD
:10065000908390E0F3CF8FBF34C02B8D30E02F5FBD
:100660003F4F2F733078332334F421503109206CFD
:100670003F6F2F5F3F4F162F022F8C8D08130CC03A
:100680000FB607FCFACFE889F989808185FFF5CF9D
:10069000CE010E94D902F1CF8B8DFE01E80FF11D32
:1006A000E35AFF4F10839FB7F89481E0882341F00D
:1006B0000B8FEA89FB8980818062808380E0F6CF9E
:1006C0009FBF81E090E0DF91CF911F910F9108953E
:1006D0001F93CF93DF93EC01188D112329F1EA8941
:1006E000FB89808185FD07C0A889B9898C9186FD29
:1006F00004C0812F03C0812F01C080E08823A1F0B6
:100700000FB607FC05C0908195FD03C080E001C0D5
:1007100080E0882321F3E889F989808185FFDFCF94
:10072000CE010E94D902DBCFDF91CF911F910895B6
:10073000CF93DF93EC0161E08D850E94B80060E00B
:100740008D850E94B800DF91CF910895FF920F939D
:100750001F93CF93DF938C01F62ED42FC0E0CD17DB
:1007600088F46F2D70E00C2E02C0759567950A9481
:10077000E2F76170F801EC0FF11D86850E94B80068
:10078000CF5FEDCFC8010E949803DF91CF911F91F9
:100790000F91FF9008956F927F928F92AF92CF92B8
:1007A000EF92FF920F931F93CF93DF93CDB7DEB7F6
:1007B0003C01F62EFC01438724870587E686C78621
:1007C000A08A818A8E85828B8F85838B8889848B92
:1007D0008989858B10E0143048F4F301E10FF11D95
:1007E00061E086850E94E9001F5FF5CFF1100CC023
:1007F00014E0183048F4F301E10FF11D61E0868543
:100800000E94E9001F5FF5CF61E0F30183850E943C
:10081000E900F30184858F3F19F061E00E94E9004F
:1008200061E0F30185850E94E900FF2019F0F301E2
:10083000148203C080E1F301848360E0F3018385C7
:100840000E94B80060E0F30185850E94B800F301C2
:1008500084858F3F19F060E00E94B8008FEFF301AC
:10086000868B12861186DF91CF911F910F91FF9099
:10087000EF90CF90AF908F907F906F900895FC0194
:1008800086898F3FA1F0662321F021853285232BB5
:1008900039F0611109C0218532852130310521F4FB
:1008A00061E00E94B800089560E00E94B8000895D9
:1008B000EF92FF921F93CF93DF93EC01162F7A01F3
:1008C00061E0812F0E94E9001E8BFA86E986E881AB
:1008D000F9810484F585E02D60E0CE010995DF9172
:1008E000CF911F91FF90EF9008950F931F93CF9397
:1008F000DF93EC01062F142F61E0413009F060E036
:100900008B850E94B8008C858F3F19F060E00E94B3
:10091000B8001230E9F08C8184FF06C048E0602FF7
:10092000CE010E94A60319C0602F70E075956795EF
:1009300075956795759567957595679544E0CE01B2
:100940000E94A60344E0602FCE010E94A60305C0CA
:1009500044E0602FCE010E94A603DF91CF911F914A
:100960000F910895DC01ED91FC910684F785E02D4F
:1009700041E0099581E090E00895DC01ED91FC9162
:100980000684F785E02D40E009950895DC01ED919E
:10099000FC910484F585E02D6FEF0995089568E1D9
:1009A0000E94BD040895FC016581262F24602583E3
:1009B0006C600E94BD040895CF93DF93CDB7DEB77E
:1009C00028970FB6F894DEBF0FBECDBFFC01198289
:1009D00080E48A8394E19B8394E59C831D828E83CB
:1009E00080E18F8380E588878781481710F04FEF7B
:1009F000480F9085903179F4843069F4A5E0B0E037
:100A0000AC0FBD1FA40FB11D8C91680F6068CF01A2
:100A10000E94BD040CC0A1E0B0E0AC0FBD1FA40F4C
:100A2000B11D9C91690F6068CF010E94BD0428969A
:100A30000FB6F894DEBF0FBECDBFDF91CF91089502
:100A400061E00E94BD0480ED97E00E9428010895B6
:100A5000CF93DF93EC01423018F08C8188608C8357
:100A60004F836887222329F0413019F48C818460F8
:100A70008C8364E670E080E090E00E9459016C8114
:100A800064FD35C0E881F9810684F785E02D42E0F8
:100A900063E0CE01099584E991E10E942801E88193
:100AA000F9810684F785E02D42E063E0CE010995E7
:100AB00086E990E00E942801E881F9810684F785A3
:100AC000E02D42E063E0CE01099586E990E00E94C6
:100AD0002801E881F9810684F785E02D42E062E093
:100AE000CE01099586E990E00E9428011AC0606253
:100AF000CE010E94BD0484E991E10E9428016C812D
:100B00006062CE010E94BD0486E990E00E94280147
:100B10006C816062CE010E94BD0486E990E00E9473
:100B200028016C816062CE010E94BD048CE390E0DC
:100B30000E94280184E08D83CE010E94D304CE015F
:100B40000E94200582E08E8366E0CE010E94BD04F3
:100B5000CE010E94C604DF91CF910895FC0113825B
:100B6000128220E331E03183208308958F92AF9287
:100B7000CF92DF92EF92FF920F931F93CF93DF9369
:100B8000EC01162FF42ED22E0E94AE0584E491E0E3
:100B9000998388831F921F921F921F928C2CAE2CD8
:100BA000C02EED2C0F2D2FEF412F61E0CE010E94C2
:100BB000CB030F900F900F900F90DF91CF911F916B
:100BC0000F91FF90EF90DF90CF90AF908F900895AE
:100BD00008950895089580E090E00895FC01DB01F8
:100BE00080E02C91222351F09081992329F029173C
:100BF00011F03196F9CF81E01196F3CF08950E945C
:100C00006D0EDC0114962D913C911597232B69F400
:100C10006115710531F0FB018081811104C081E013
:100C2000089581E0089580E008956115710549F403
:100C3000DC01ED91FC9181E09081992361F080E0ED
:100C40000895FC01808191810E947B0E21E0892B17
:100C500009F020E0822F08950F931F93CF93DF9325
:100C60008C01EB01FC0180819181892B99F18881B4
:100C70009981892B21F480E090E0DC0104C08FE9A8
:100C800091E0A0E0B0E0892B11F4A0FF0AC0F801C8
:100C9000228133818C819D812817390720F480E0DF
:100CA00003C080E001C081E0882379F06881798108
:100CB000F801808191810E94840E8C819D81F801D0
:100CC000958384831D821C8218C0F80180819181E4
:100CD0000E941E0D88819981F801918380838A8109
:100CE0009B81938382838C819D81958384831982E8
:100CF00018821B821A821D821C82DF91CF911F9164
:100D00000F910895CF93DF93EC018617970711F0A9
:100D10000E942C06CE01DF91CF910895CF93DF93EF
:100D2000EC0188819981009711F00E941E0D1982B3
:100D300018821D821C821B821A82DF91CF91089536
:100D4000FC01808191810E941E0D08950F931F93D5
:100D5000CF93DF93EC018B016F5F7F4F8881998187
:100D60000E94A70D009731F0998388831B830A8323
:100D700081E001C080E0DF91CF911F910F91089534
:100D8000CF93DF93FC0120813181232B29F0228135
:100D900033812617370770F4EC010E94A6068823DA
:100DA00061F08C819D81892B39F4E881F981108271
:100DB00081E003C081E001C081E0DF91CF9108951F
:100DC000EF92FF920F931F93CF93DF93FC01C481A7
:100DD000D581C40FD51F61157105C1F0452BC1F038
:100DE0007B018C01BE010E94C006882391F0F801AE
:100DF0002081318184819581B701820F931F0E94E8
:100E0000840EF801D583C48381E003C080E001C073
:100E100081E0DF91CF911F910F91FF90EF900895A6
:100E2000CF93DF9300D0CDB7DEB769831A8241E05C
:100E300050E0BE016F5F7F4F0E94E0060F900F9061
:100E4000DF91CF910895EF92FF920F931F93CF936D
:100E5000DF93EC017B018A01BA010E94C006811177
:100E600004C0CE010E948E0607C01D830C83B7010B
:100E7000888199810E94840ECE01DF91CF911F91CC
:100E80000F91FF90EF900895FC0111821082138260
:100E90001282158214826115710551F0FB010190D7
:100EA0000020E9F73197AF01461B570B0E9423073B
:100EB00008950F931F93CF93DF93EC018B0168E8A4
:100EC00071E00E944407C8010E94A001992344F0E8
:100ED000682FCE010E941007C8010E94A001F6CF22
:100EE000CE01DF91CF911F910F910895AF92BF92E4
:100EF000CF92EF920F93CF93DF93EC015B010197B9
:100F0000F9F46F3F7F4FE1F468E871E085E592E026
:100F10000E94440764E871E08FE492E00E94440775
:100F20000F2EF3E1CF2EF02D0F2EF2E1EF2EF02D4C
:100F300001E120E14FE06EE088E392E00E94B60517
:100F4000CD2B59F4AB20A09441F48FE492E00E94A1
:100F5000A00685E592E00E94A006DF91CF910F9157
:100F6000EF90CF90BF90AF9008956115710581F01B
:100F7000FB0101900020E9F73197AF01461B570BA9
:100F8000DC01ED91FC910280F381E02D099508953B
:100F900080E090E008958F929F92AF92BF92DF928F
:100FA000EF92FF920F931F93CF93DF93CDB7DEB7EE
:100FB000A1970FB6F894DEBF0FBECDBF7C01CB0169
:100FC000BA01D22E19A221E02D1520F00F2EFAE041
:100FD000DF2EF02D8E010F5D1F4F8D2C912CA12C3B
:100FE000B12CA50194010E94270CE62F622F732FCC
:100FF000842F952F01501109EA3014F4E05D01C0EF
:10100000E95CD801EC93611571058105910529F71B
:10101000B801C7010E94B507A1960FB6F894DEBFCC
:101020000FBECDBFDF91CF911F910F91FF90EF9039
:10103000DF90BF90AF909F908F900895211531055C
:1010400049F4DC01ED91FC910190F081E02D642FD9
:10105000099508950E94CB0708959A01462F50E004
:1010600060E070E00E941E080895DC01ED91FC91A3
:101070000280F381E02D42E050E066E871E00995DE
:1010800008956115710581F0FB0101900020E9F7D9
:101090003197AF01461B570BDC01ED91FC910280AB
:1010A000F381E02D0995089580E090E008950F9375
:1010B0001F93CF93DF93EC010E9441088C01CE0176
:1010C0000E943508800F911FDF91CF911F910F91E2
:1010D000089580912B0281110BC00E94AE0B69E133
:1010E00070E00E94580C80932A0281E080932B02CA
:1010F0008AE292E008956FEF7FEF81E090E00E9436
:1011000000026FEF7FEF81E090E00E947607089584
:101110001F920F920FB60F9211240F931F932F93CC
:101120003F934F935F936F937F938F939F93AF936F
:10113000BF930091F9021091FA022091FB023091C5
:10114000FC029091F802B901A8014F5F5F4F6F4F09
:101150007F4F83E0890F8D3740F086E8890FB90112
:10116000A8014E5F5F4F6F4F7F4F8093F80240930F
:10117000F9025093FA026093FB027093FC02809193
:10118000FD029091FE02A091FF02B0910003019632
:10119000A11DB11D8093FD029093FE02A093FF025A
:1011A000B0930003BF91AF919F918F917F916F9109
:1011B0005F914F913F912F911F910F910F900FBE13
:1011C0000F901F9018951F920F920FB60F92112437
:1011D0002F933F934F935F936F937F938F939F933F
:1011E000AF93BF93EF93FF938BE592E00E94D902F8
:1011F000FF91EF91BF91AF919F918F917F916F91EF
:101200005F914F913F912F910F900FBE0F901F90C4
:1012100018951F920F920FB60F9211242F938F9350
:101220009F93AF93BF93EF93FF93E0916B02F09185
:101230006C02808182FD14C0EBE5F2E0A689B789DB
:101240002C91818D8F5F8F73928D891771F0DF01E3
:10125000E18DF0E0E55AFD4F258F59968C9305C03E
:10126000E0917102F09172028081FF91EF91BF9144
:10127000AF919F918F912F910F900FBE0F901F9064
:1012800018956FEF7FEF80E090E00E947607089559
:101290000F931F93CF93DF93CDB7DEB72C970FB685
:1012A000F894DEBF0FBECDBF26E040E855E260E017
:1012B00070E08BE592E00E94730220E042E060E182
:1012C00088E392E00E94280588E392E00E942005CE
:1012D00080E29EE40E94B30B40E060E088E392E08D
:1012E0000E94DC0469E871E088E392E00E94410812
:1012F0002FEF83ED90E3215080409040E1F700C054
:10130000000041E060E088E392E00E94DC046AE9CA
:1013100071E088E392E00E944108AFEFB9E628E16E
:10132000A150B0402040E1F700C0000066EB71E042
:101330008BE592E00E94570800E010E00B301105A9
:1013400080F488E392E00E94CF048FEF99E6A8E151
:1013500081509040A040E1F700C000000F5F1F4F98
:10136000EDCF88E392E00E942005BFEF23EC89E0F7
:10137000B15020408040E1F700C0000040E060E054
:1013800088E392E00E94DC046BEB71E088E392E07A
:101390000E94410810E01330C8F40E946908DC0183
:1013A000EC91812F90E0F0E0EF5EFE4F2081FC0198
:1013B000EC5CFD4F2083BFEF21EE84E0B150204074
:1013C0008040E1F700C000001F5FE5CF10923702B8
:1013D00060E071E084E392E00E94EE05182F88231C
:1013E000C9F240E066E088E392E00E94DC0464E336
:1013F00072E088E392E00E94410864E372E08BE5CA
:1014000092E00E9457089FEFA9E6B8E19150A040F2
:10141000B040E1F700C0000040E061E088E392E006
:101420000E94DC0462EC71E088E392E00E944108D3
:1014300062EC71E08BE592E00E9457082FEF83ED9C
:1014400090E3215080409040E1F700C000006BE540
:1014500072E0CE0107960E945907BE01695F7F4F77
:1014600085E592E00E948206CE0107960E94A006C2
:1014700064E871E085E592E00E940106811109C0EF
:1014800063ED71E085E592E00E940106811103C0E1
:1014900003C0812F01C0812F8823E1F080913302A6
:1014A0008F5F8093330241E06DE088E392E00E9419
:1014B000DC0465ED71E088E392E00E94410888E376
:1014C00092E00E94200565ED71E08BE592E00E94BC
:1014D000570816C041E06DE088E392E00E94DC040A
:1014E00069ED71E088E392E00E94410888E392E0B0
:1014F0000E94200569ED71E08BE592E00E9457089B
:10150000AFEFB9E628E1A150B0402040E1F700C0BC
:10151000000088E392E00E94200540E060E088E35C
:1015200092E00E94DC046CED71E088E392E00E949E
:1015300041086CED71E08BE592E00E9441088FEF6D
:1015400099E6A8E181509040A040E1F700C000007A
:101550006BE572E0CE0101960E945907BE016F5FF4
:101560007F4F8FE492E00E948206CE0101960E9496
:10157000A0066AEE71E08FE492E00E9401068111FC
:101580000AC068EE71E08FE492E00E9401068111CA
:1015900004C000E003C0012F01C0012F011142C0AF
:1015A00064E871E08FE492E00E940106811109C0B5
:1015B00063ED71E08FE492E00E940106811101C0A9
:1015C000102F1123E1F041E060E088E392E00E94F7
:1015D000DC0465ED71E088E392E00E94410865ED6E
:1015E00071E08BE592E00E9457089FEFA9E6B8E111
:1015F0009150A040B040E1F700C00000B6CE41E0FD
:1016000060E088E392E00E94DC046CE172E088E331
:1016100092E00E9441086CE172E08BE592E00E944A
:101620005708A3CE41E060E088E392E00E94DC042A
:1016300069ED71E088E392E00E944108BFEF29E67E
:1016400088E1B15020408040E1F700C0000088E30D
:1016500092E00E94200540E060E088E392E00E9472
:10166000DC046CEE71E088E392E00E94410841E006
:1016700060E088E392E00E94DC044AE050E0609180
:10168000330288E392E00E942D086CEF71E08BE555
:1016900092E00E9441084AE050E0609133028BE5FD
:1016A00092E00E942D081092330280E090E02C9688
:1016B0000FB6F894DEBF0FBECDBFDF91CF911F9163
:1016C0000F9108958F929F92AF92BF92CF92DF9227
:1016D000EF92FF92CF93DF93EC01688179818A8149
:1016E0009B81611571058105910521F464E279ED15
:1016F0008BE597E02DE133EF41E050E00E94BE0B17
:1017000049015A019B01AC01A7EAB1E40E94DD0B3B
:101710006B017C01ACEEB4EFA50194010E94EB0BD0
:10172000DC01CB018C0D9D1DAE1DBF1DB7FF03C09D
:101730000197A109B04888839983AA83BB839F77C7
:10174000DF91CF91FF90EF90DF90CF90BF90AF905F
:101750009F908F9008950E94620B089587E091E01A
:101760000E94620B0895A0E0B0E08093070190937F
:101770000801A0930901B0930A010895052E97FB73
:101780001EF400940E94D50B57FD07D00E94270C31
:1017900007FC03D04EF40C94D50B50954095309532
:1017A00021953F4F4F4F5F4F0895909580957095CD
:1017B00061957F4F8F4F9F4F08950E94490CA59FC1
:1017C000900DB49F900DA49F800D911D112408953C
:1017D000B7FF0C94DD0B0E94DD0B821B930B089569
:1017E0002F923F924F925F926F927F928F929F9231
:1017F000AF92BF92CF92DF92EF92FF920F931F931F
:10180000CF93DF93CDB7DEB7CA1BDB0B0FB6F894CF
:10181000DEBF0FBECDBF09942A88398848885F840F
:101820006E847D848C849B84AA84B984C884DF8080
:10183000EE80FD800C811B81AA81B981CE0FD11D64
:101840000FB6F894DEBF0FBECDBFED010895A1E243
:101850001A2EAA1BBB1BFD010DC0AA1FBB1FEE1F2A
:10186000FF1FA217B307E407F50720F0A21BB30B75
:10187000E40BF50B661F771F881F991F1A9469F7F1
:1018800060957095809590959B01AC01BD01CF014D
:101890000895A29FB001B39FC001A39F700D811D49
:1018A0001124911DB29F700D811D1124911D089569
:1018B00097FB072E16F4009407D077FD09D00E94FD
:1018C0006C0C07FC05D03EF4909581959F4F0895D0
:1018D000709561957F4F0895AA1BBB1B51E107C00E
:1018E000AA1FBB1FA617B70710F0A61BB70B881FB0
:1018F000991F5A95A9F780959095BC01CD0108953F
:10190000EE0FFF1F0590F491E02D09940F931F93A4
:10191000CF93DF938230910510F482E090E0E09164
:101920000303F091040320E030E0A0E0B0E0309742
:1019300019F1408151810281138148175907C8F07C
:101940008417950769F4109731F012960C9312974B
:1019500013961C9327C0009303031093040322C023
:101960002115310519F04217530718F49A01BD01EA
:10197000EF01DF01F801DBCF21153105F9F0281B5C
:10198000390B2430310580F48A819B816115710502
:1019900021F0FB019383828304C09093040380931E
:1019A0000303FE01329644C0FE01E20FF31F819350
:1019B000919322503109398328833AC02091010341
:1019C00030910203232B41F420910D0130910E013F
:1019D000309302032093010320910B0130910C01FD
:1019E0002115310541F42DB73EB740910F015091BB
:1019F0001001241B350BE0910103F0910203E21763
:101A0000F307A0F42E1B3F0B2817390778F0AC0121
:101A10004E5F5F4F2417350748F04E0F5F1F5093FE
:101A20000203409301038193919302C0E0E0F0E050
:101A3000CF01DF91CF911F910F910895CF93DF9345
:101A4000009709F481C0FC01329713821282A091A1
:101A50000303B0910403109781F420813181820F38
:101A6000931F20910103309102032817390751F584
:101A7000F0930203E093010367C0ED0120E030E042
:101A8000CE17DF0740F44A815B819E014115510565
:101A9000F1F0EA01F5CFD383C28340815181840FF5
:101AA000951FC817D90759F488819981840F951F0C
:101AB0000296918380838A819B81938382832115FF
:101AC000310529F4F0930403E09303033DC0E901D9
:101AD000FB83EA8349915991C40FD51FEC17FD0789
:101AE00061F480819181840F951F0296E9019983A9
:101AF0008883828193819B838A83E0E0F0E0129661
:101B00008D919C911397009719F0FD01DC01F7CF9F
:101B10008D919C9111979D012E5F3F4F820F931FD6
:101B200020910103309102032817390769F4309797
:101B300029F4109204031092030302C0138212824C
:101B4000B0930203A0930103DF91CF910895A0E029
:101B5000B0E0EDEAFDE00C94F40BEC01009721F409
:101B6000CB010E94860CB4C0FC01E60FF71F9C015C
:101B700022503109E217F30708F4A8C0D9010D91EA
:101B80001C91119706171707B0F00530110508F4DE
:101B90009BC0C80104978617970708F495C00250A8
:101BA0001109061B170B019311936D937C93CF01C1
:101BB0000E941E0D89C05B01A01AB10A4C01800E63
:101BC000911EA0910303B0910403612C712CE12CB0
:101BD000F12C109709F446C08D919C911197A8158E
:101BE000B905B1F56C0142E0C40ED11CCA14DB0486
:101BF00078F14C018A189B08640142E0C40ED11CA4
:101C00001296BC9012971396AC91B5E0CB16D10406
:101C100040F0B282A38391828082D9016D937C933C
:101C200009C00E5F1F4F800F911FF90191838083C0
:101C3000EB2DFA2FE114F10431F0D7011396FC9348
:101C4000EE93129741C0F0930403E09303033CC06A
:101C50006816790608F43C017D0112960D90BC913E
:101C6000A02DB7CF809101039091020388169906A9
:101C7000E1F466167706C8F480910B0190910C018F
:101C8000009741F48DB79EB740910F01509110011C
:101C9000841B950BE817F907C8F4F0930203E0934F
:101CA0000103F901718360830FC0CB010E94860C90
:101CB0007C01009759F0A801BE010E94720ECE016E
:101CC0000E941E0DC70104C0CE0102C080E090E05A
:101CD000CDB7DEB7EEE00C94100C81E090E0F89404
:101CE0000C948B0EFB01DC0102C001900D9241505F
:101CF0005040D8F70895FB01DC018D9101908019C7
:101D00000110D9F3990B0895FB01DC0101900D92AC
:101D10000020E1F7089510E0CDE5D0E004C0FE0119
:101D20000E94800C2196CE35D107C9F7F894FFCFD9
:101D30006165696F757900010000000000050320EE
:101D4000006162636465666768696A6B6C6D6E6F7B
:101D5000707172737475767778797A00000000007C
:101D6000B204D001EB05EA052805E905E805FF0501
:101D700000000000B204D001EB05EA052805580474
:101D80003F047504000000000403D0013202680320
:101D900066024402580200000000FF05D001EB0576
:101DA000EA05FF05FF05FF0500000000FF05D00163
:101DB000EB05EA0579000D0A002A2A2A45696368BD
:101DC000656E202852292A2A2A00546872656520E7
:101DD0004C657474657220576F72642047656E6538
:101DE0007261746F7200446F6E6500576F72643A6F
:101DF0002000576F7264204578697374733F2059CF
:101E00002F4E005900596573004E6F00436F6E747A
:101E1000696E75653F20592F4E006E00436F7272D8
:101E200065637420776F7264733A2000546F746135
:101E30006C206E756D626572206F6620636F7272C2
:101E400065637420776F7264733A2000496E76611F
:0A1E50006C696420696E70757400FF
:00000001FF
